:100000000C9472000C9493000C9493000C94930045
:100010000C9493000C9493000C9493000C94930014
:100020000C9493000C9493000C9493000C94930004
:100030000C9493000C9493000C9493000C949300F4
:100040000C9493000C9493000C9493000C949300E4
:100050000C9493000C9493000C9493000C949300D4
:100060000C9493000C9460020C943E030C94930047
:100070000C9493000C9493000C9493000C949300B4
:100080000C9493000C9493000C9493000C949300A4
:100090000C9493000C9493000C9493000C94930094
:1000A0000C9493000C9493000C9493000C94930084
:1000B0000C9493000C9493000C9493000C94930074
:1000C0000C9493000C9493000C9493000C94930064
:1000D0000C9493000C9493000C9493000C94930054
:1000E0000C94930011241FBECFEFD1E2DEBFCDBF31
:1000F00000E00CBF13E0A0E0B2E0ECEAF5E100E0C4
:100100000BBF02C007900D92A032B107D9F715E0DE
:10011000A0E2B3E001C01D92A134B107E1F70E9453
:1001200095000C94D50A0C940000EF920F931F9346
:10013000CF93DF93EE24E39400E028E040E05BE41B
:1001400060E070E080E00E949C01789484E0E82EFA
:1001500002E021E040E063E080E390E00E94D20012
:100160000E945B0260E080E00E94A5020DE215E0C3
:10017000C0E0D2E0809120030E94820180912003A0
:10018000682F70E08F5F809320034AE050E0C80141
:100190000E94E3030E943D02CE010E943D020E94A4
:1001A0000E02E8CFEF920F93CF93DF93DC014093E1
:1001B00024032093250300932603E09227036093F2
:1001C0002803FC018FE18193ED0129813091270300
:1001D00081E090E002C0880F991F3A95E2F7282B42
:1001E0002983F0932303E0932203DF91CF910F91B2
:1001F000EF9008950F931F93CF93DF93A091220365
:10020000B09123039C9120912703C1E0D0E08E019F
:1002100002C0000F111F2A95E2F7902B9C939C912E
:100220004091240320912503E09126038E0102C012
:10023000000F111F2A95E2F798018E0102C0000FEE
:10024000111F4A95E2F7202BAE0102C0440F551F43
:10025000EA95E2F7242B209529232C939C9170E0BA
:1002600050912603E0912503409124039B012170C6
:10027000307002C0220F331F4A95E2F7922B9B0188
:1002800024703070359527953595279502C0220F3B
:10029000331F5A95E2F7922B6270707075956795CF
:1002A00002C0660F771FEA95E2F7962B9C9380FFBA
:1002B0000AC08C919091280302C0CC0FDD1F9A9543
:1002C000E2F78C2B0CC09C918091280302C0CC0FCC
:1002D000DD1F8A95E2F78E010095802F89238C938C
:1002E0003C912091270381E090E002C0880F991F84
:1002F0002A95E2F7809583238C93DF91CF911F910C
:100300000F9108951F93CF93DF9310E0C82FD0E093
:100310000BC0CE01012E02C0959587950A94E2F795
:10032000612F0E94FA001F5F183098F31093210389
:10033000DF91CF911F910895EF920F93CF93DF93A9
:100340003E2D833060F490E0E3E0880F991FEA953A
:10035000E1F780549F4F9093160280931502A0916D
:100360001502B0911602FD0182E0819388E9ED014A
:100370008983293010F08CE98983EF01219631308F
:1003800019F48181877F04C0323019F4818188603B
:100390008183013019F48881806306C0888102302E
:1003A00011F4806201C08F7C888388818F73888379
:1003B0002296D0931602C09315022297CB01BA0160
:1003C0000E9424089B01AC0160E074E284E79BE496
:1003D0000E94E60620E030E040E05EE30E94E70590
:1003E00020E030E040E85FE30E9489050E941D04A0
:1003F0006A83DF91CF910F91EF900895982F8091AC
:10040000C00085FFFCCF9093C60008958091C00086
:1004100087FFFCCF8091C60090E0089590912B0556
:1004200080912C059817D1F3E0912C05F0E0E55D63
:10043000FB4F808190912C059F5F90932C0590E05D
:100440000895482F20912A048091290430E08F5F7D
:1004500090E028173907B1F3E0912904F0E0E75D57
:10046000FC4F4083809129048F5F80932904809101
:10047000C10080628093C1000895CF93DF93EC01A7
:1004800003C00E942102219688818823D1F7DF9141
:10049000CF9108950F931F938C0183E092E00E9407
:1004A0003D02C8010E943D0288E092E00E943D02A8
:1004B0001F910F9108958DE092E00E943D020895F2
:1004C0001F920F920FB60F9211242F933F938F9389
:1004D0009F93EF93FF9320912C0580912B0530E0A3
:1004E0008F5F90E02817390769F0E0912B05809124
:1004F000C600F0E0E55DFB4F808380912B058F5FA8
:1005000080932B05FF91EF919F918F913F912F91B8
:100510000F900FBE0F901F901895E1ECF0E08081D6
:1005200080628083089590912B0580912C0520E0B6
:1005300030E0981711F021E030E0C9010895E1ECB6
:10054000F0E080818F7D80830895CF92DF92EF92DB
:10055000FF920F931F93CF93DF93CDB7DEB725970D
:100560000FB6F894DEBF0FBECDBFC82E062F7E019A
:100570000894E11CF11C85E0F70111928A95E9F7D6
:1005800082E192E00E943D0210E04AE050E0B801B2
:10059000C7010E94E303C7010E943D028BE30E9452
:1005A0002102DD244AE050E0B601C7010E94E303C6
:1005B000C7010E943D0286E60E94210225960FB6E1
:1005C000F894DEBF0FBECDBFDF91CF911F910F9189
:1005D000FF90EF90DF90CF900895FC0107C08091CD
:1005E000C00085FFFCCF9093C6003196908199237F
:1005F000B1F70895FC0120E08091C00087FFFCCF97
:100600009091C600892F80528F3550F4243140F4E8
:100610008091C00085FFFCCF9093C6002F5F91931F
:100620009830D1F4222341F312928091C00085FFCB
:10063000FCCF88E08093C6008091C00085FFFCCF8E
:1006400080E28093C6008091C00085FFFCCF2150DE
:1006500088E08093C600D0CF9D3071F610828091E3
:10066000C00085FFFCCF8AE08093C6008091C00067
:1006700085FFFCCF8DE08093C60008951F920F92F6
:100680000FB60F9211248F939F93EF93FF93909146
:10069000290480912A04981771F0E0912A04F0E06F
:1006A000E75DFC4F80818093C60080912A048F5FB4
:1006B00080932A0405C08091C1008F7D8093C10082
:1006C000FF91EF919F918F910F900FBE0F901F9010
:1006D00018950F931F93CF93DF93EC0100E0909157
:1006E0002B0580912C059817D1F3E0912C05F0E0B3
:1006F000E55DFB4F108180912C058F5F80932C0569
:10070000812F80528F3538F4043128F4812F0E94D4
:1007100021020F5F1993183071F4002301F3015087
:100720001A9288E00E94210280E20E94210288E061
:100730000E942102D4CF1D3091F618828AE00E94D7
:1007400021028DE00E942102DF91CF911F910F9134
:100750000895FC0140E050E014C0892F80538A3096
:1007600098F4892F90E0C0979A0173E0220F331F0D
:100770007A95E1F7440F551F420F531F480F591F39
:1007800031969081992349F7CA0108959C01DC01B3
:1007900070E061507040FC01E60FF71F6F5F7F4F04
:1007A00040E050E006C09C9181818D934F5F5F4F88
:1007B00091833197CB01841B950B019748175907FB
:1007C00094F3C9010895EF92FF920F931F93CF9373
:1007D000DF93EC019B01672B21F480E3888319826E
:1007E00024C000E010E0E42EFF24C901B7010E94FC
:1007F0008A0A8A30910514F0895C01C0805DFE018F
:10080000E00FF11F80830F5F1F4FC901B7010E94E6
:100810008A0A9B01672B49F7FE01E00FF11F108246
:10082000602FCE010E94C603EC01CE01DF91CF9173
:100830001F910F91FF90EF900895EF92FF920F9309
:100840001F937B018C0120E030E040E05FE40E94D8
:100850009B0788237CF020E030E040E05FE4C801A3
:10086000B7010E9489050E94D10760507040804006
:10087000904804C0C801B7010E94D1071F910F9191
:10088000FF90EF900895A0E0B0E0E9E4F4E00C946C
:10089000A00A2C015B01FA01DC019C91923008F462
:1008A00032C1EB018881823008F42CC1943071F49C
:1008B000843009F028C1F20191818981981709F4E7
:1008C00022C117E1412E12E0512E1DC1843009F4DE
:1008D00019C18230A9F4923009F015C1CA01A201F0
:1008E00028E0DA010D90AD01EC010992CE01215012
:1008F000C1F7E5018981E20199818923818300C1E2
:10090000923009F4FFC0E201CA80DB80EB018A81EA
:100910009B81E2012C813D814E815F81EB01EC8066
:10092000FD800E811F81B601681B790BDB0177FF0B
:1009300003C0709561957F4F603271050CF05DC00A
:100940001A161B065CF566247724430181E090E0CB
:10095000A0E0B0E0062E04C0880F991FAA1FBB1F9D
:100960000A94D2F70197A109B1098E219F21A023F2
:10097000B1230097A105B10529F0B1E06B2E712CD0
:10098000812C912C04C016950795F794E7946A95ED
:10099000D2F7E628F728082919293BC0AB2BC9F163
:1009A000C60ED71E66247724430181E090E0A0E0C4
:1009B000B0E0062E04C0880F991FAA1FBB1F0A941F
:1009C000D2F70197A109B10982239323A423B52368
:1009D0000097A105B10529F0A1E06A2E712C812CA8
:1009E000912C04C056954795379527956A95D2F76F
:1009F00026293729482959290CC08C159D0534F022
:100A00006C0120E030E040E050E003C0EE24FF2421
:100A10008701E2019981E5018981981709F443C0B2
:100A2000992339F0E21AF30A040B150BA801970178
:100A300004C02E193F09400B510B57FD08C011820D
:100A4000D382C28224833583468357831DC081E0CD
:100A50008183D382C28288279927DC01821B930B72
:100A6000A40BB50B84839583A683B7830DC0220F97
:100A7000331F441F551F2483358346835783828148
:100A800093810197938382832481358146815781A5
:100A9000DA01C9010197A109B1098F5F9F4FAF4FDB
:100AA000BF4328F30BC09183D382C2822E0D3F1D1A
:100AB000401F511F248335834683578383E08083FF
:100AC00024813581468157815523D4F4C901AA2751
:100AD00097FDA095BA2F81709070A070B070569558
:100AE000479537952795822B932BA42BB52B848381
:100AF0009583A683B78382819381019693838283B2
:100B00002F0101C02501C201E0E1CDB7DEB70C9491
:100B1000BC0AA0E2B0E0EFE8F5E00C94AA0A698311
:100B20007A838B839C832D833E834F83588709E090
:100B3000E02EF12CEC0EFD1EB701CE0101960E94B5
:100B4000C4098E010F5E1F4FB801CE0105960E94A9
:100B5000C4098A8991E089278A8BAE01475E5F4F7D
:100B6000B801C7010E9443040E94E408E6E0A09691
:100B70000C94C60AA0E2B0E0E0ECF5E00C94AA0AFE
:100B800069837A838B839C832D833E834F8358872D
:100B900089E0E82EF12CEC0EFD1EB701CE01019686
:100BA0000E94C4098E010F5E1F4FB801CE01059649
:100BB0000E94C409AE01475E5F4FB801C7010E94A1
:100BC00043040E94E408E6E0A0960C94C60AA0E262
:100BD000B0E0EDEEF5E00C94A00A69837A838B8394
:100BE0009C832D833E834F83588799E0E92EF12C17
:100BF000EC0EFD1EB701CE0101960E94C4098E01C4
:100C00000F5E1F4FB801CE0105960E94C409998559
:100C1000923088F089898230C0F0943019F48230A3
:100C200029F009C0843029F4923079F467E172E048
:100C3000C6C0923041F420E09A858A89981321E059
:100C40002A87B701BCC0823041F420E09A858A89A6
:100C5000981321E02A8BB801B2C0CD84DE84EF84E2
:100C6000F8880D891E892F89388D8824992454018C
:100C700040E050E060E070E0442455243201E0E0C0
:100C8000F0E0C60181709070892BD9F0800E911E22
:100C9000A21EB31EDB01CA01840D951DA61DB71D42
:100CA00040E050E060E070E080169106A206B306D6
:100CB00020F441E050E060E070E0480F591F6A1FE7
:100CC0007B1F440C551C661C771C37FF08C081E055
:100CD00090E0A0E0B0E0482A592A6A2A7B2A31969F
:100CE000E032F10549F0000F111F221F331FF69467
:100CF000E794D794C794C5CF8B899C892B853C8575
:100D0000820F931F02969C8F8B8F1A8E9A858A89E9
:100D1000981711F081E08A8F2B8D3C8D17C0CA0186
:100D200081709070892B61F0B694A7949794879402
:100D300080E090E0A0E0B0E8882A992AAA2ABB2A9D
:100D400076956795579547952F5F3F4F77FDE7CF8E
:100D5000C9010BC0440F551F661F771FB7FC4160C8
:100D6000880C991CAA1CBB1C01974030A0E05A07B4
:100D7000A0E06A07A0E47A0768F39C8F8B8FDB0101
:100D8000CA018F779070A070B07080349105A10572
:100D9000B10561F447FD0AC081149104A104B104B6
:100DA00029F0405C5F4F6F4F7F4F40784D8F5E8FD3
:100DB0006F8F78A383E0898FBE01675E7F4FCB0181
:100DC0000E94E408E0E1A0960C94BC0AA8E1B0E01F
:100DD000ECEEF6E00C94A60A69837A838B839C83FD
:100DE0002D833E834F8358878E01075F1F4FB801C5
:100DF000CE0101960E94C40981E1E82EF12CEC0E8F
:100E0000FD1EB701CE0105960E94C4093985323016
:100E1000F8F02989223010F4B70186C08A859A89B2
:100E200089278A87343011F0323029F4321781F45F
:100E300067E172E079C0243039F41D861E861F8672
:100E4000188A1C861B8604C0223021F484E089871E
:100E5000B8016AC06B857C858B899C89681B790B7E
:100E60007C876B872D853E854F8558898D899E8926
:100E7000AF89B88D281739074A075B0740F4220F5E
:100E8000331F441F551F615070407C876B87A12C16
:100E9000B12CC12C10E4D12EEE24FF24870160E098
:100EA00070E0281739074A075B0740F0EA28FB285B
:100EB0000C291D29281B390B4A0B5B0BD694C794B0
:100EC000B794A794220F331F441F551F6F5F7F4FA6
:100ED0006F31710531F7D801C7018F779070A0701D
:100EE000B07080349105A105B105B9F4E7FC15C0D7
:100EF000211531054105510581F080E490E0A0E025
:100F0000B0E0E80EF91E0A1F1B1F80E89FEFAFEF4D
:100F1000BFEFE822F9220A231B23ED86FE860F8706
:100F2000188BBE01675F7F4FCB010E94E408EAE0A7
:100F300068960C94C20AA8E1B0E0E1EAF7E00C94EC
:100F4000AA0A69837A838B839C832D833E834F8394
:100F5000588789E0E82EF12CEC0EFD1EB701CE017A
:100F600001960E94C4098E010F5E1F4FB801CE0189
:100F700005960E94C4098985823060F08989823093
:100F800048F0B801C7010E94340A282F332727FDF3
:100F9000309502C02FEF3FEFC901E6E068960C9450
:100FA000C60AACE0B0E0E7EDF7E00C94AE0A698366
:100FB0007A838B839C83BE016B5F7F4FCE0101964A
:100FC0000E94C4098D818230A9F1823098F1843069
:100FD00021F48E81882359F40FC02F81388537FD85
:100FE00029C06E812F31310564F0662329F020E09D
:100FF00030E040E050E822C02FEF3FEF4FEF5FE7D7
:101000001DC08EE190E0821B930B29853A854B85AC
:101010005C8504C056954795379527958A95D2F7F4
:10102000662361F050954095309521953F4F4F4F85
:101030005F4F04C020E030E040E050E0CA01B90159
:10104000E2E02C960C94CA0AA8E0B0E0EAE2F8E0EC
:101050000C94A80A7B018C0161157105810591052D
:1010600019F482E089835AC083E089838EE1C82E17
:10107000D12CDC82CB82ED82FE820F831887C801DF
:10108000B7010E949708BC016150704077FF33C0E0
:10109000EE27FF27E61BF70B20E030E040E050E0B2
:1010A00081E090E0A0E0B0E00E2E04C0880F991F10
:1010B000AA1FBB1F0A94D2F70197A109B1098E217B
:1010C0009F21A023B1230097A105B10521F021E0C4
:1010D00030E040E050E004C016950795F794E7949F
:1010E000EA95D2F72E293F29402B512B2D833E83A1
:1010F0004F8358870FC06115710581F0062E04C01B
:10110000EE0CFF1C001F111F0A94D2F7ED82FE8225
:101110000F831887C61AD70ADC82CB821A82CE01C7
:1011200001960E94E408E8E028960C94C40AEF9225
:10113000FF920F931F939B01AC01203080E0380792
:1011400081E0480780E0580780F42F3F31054105D2
:10115000510509F020F4EE24FF24870119C068E04E
:10116000E62EF12C012D112D13C0203080E0380720
:1011700080E0480781E0580730F490E1E92EF12C37
:10118000012D112D05C088E1E82EF12C012D112D26
:1011900080E290E0A0E0B0E08E199F09A00BB10BB7
:1011A00004C05695479537952795EA94D2F7F901EB
:1011B000E15EFD4F2081821B9109A109B1091F91B8
:1011C0000F91FF90EF9008959F92AF92BF92CF92B0
:1011D000DF92EF92FF920F931F93EE24FF2487017B
:1011E000FC01248135814681578191808081823044
:1011F00010F44061A2C0843009F49BC0823029F40D
:1012000020E030E040E050E005C021153105410507
:10121000510519F4E0E0F0E092C0828193816FEF14
:10122000823896070CF05AC062E87FEF681B790B92
:101230006A3171052CF020E030E040E050E02AC037
:10124000AA24BB24650181E090E0A0E0B0E0062E76
:1012500004C0880F991FAA1FBB1F0A94D2F70197D9
:10126000A109B10982239323A423B5230097A105E3
:10127000B10529F071E0A72EB12CC12CD12C04C0EE
:1012800056954795379527956A95D2F72A293B2990
:101290004C295D29DA01C9018F779070A070B07078
:1012A00080349105A105B10539F427FF09C0205C00
:1012B0003F4F4F4F5F4F04C0215C3F4F4F4F5F4F39
:1012C00080E090E0203060E0360760E0460760E4B0
:1012D000560710F081E090E0FC0123C080389105B2
:1012E00044F5FC01E158FF4FDA01C9018F77907096
:1012F000A070B07080349105A105B10539F427FFC5
:1013000009C0205C3F4F4F4F5F4F04C0215C3F4FEF
:101310004F4F5F4F57FF05C0569547953795279517
:10132000319687E056954795379527958A95D1F759
:1013300006C020E030E040E050E0EFEFF0E0E22EC9
:10134000F32E942F9F77802F8078892B9E2F97954F
:10135000992797958F77082F092B9E2F9695812F88
:101360008078892B9794992497948F77182F19292F
:10137000C801B7011F910F91FF90EF90DF90CF90C0
:10138000BF90AF909F900895CF93DF93FC01DB0156
:10139000208131819281492F4F7750E0991F992701
:1013A000991F8381E82FEE0FE92B6E2F70E0881FC5
:1013B0008827881FED018983EE2371F521153105FA
:1013C0004105510511F482E02FC06E577040FD01B8
:1013D0007383628367E0220F331F441F551F6A9592
:1013E000D1F783E08C930AC0220F331F441F551F8F
:1013F000ED018A819B8101979B838A832030E0E005
:101400003E07E0E04E07E0E45E0770F3ED012C8359
:101410003D834E835F8325C0EF3F79F4211531056D
:101420004105510519F484E08C931BC044FF03C0AF
:1014300081E08C9311C01C920FC06F577040ED017A
:101440007B836A8383E08C9387E0220F331F441FE2
:10145000551F8A95D1F75064FD0124833583468357
:101460005783DF91CF910895CF93DF93DC01FB0188
:101470009C91923008F446C08081823008F442C0CA
:10148000943049F4ED016981843079F5818190E0EF
:10149000861B91093CC0843021F0923031F48230B7
:1014A000A1F18181882371F52AC0ED016981823023
:1014B000E1F081816817C9F4ED012A813B818281C5
:1014C0009381821793078CF028173907B4F0ED0148
:1014D0008C819D81AE81BF81248135814681578178
:1014E000281739074A075B0718F4662341F40AC036
:1014F00082179307A407B50740F4662319F48FEF0A
:101500009FEF05C081E090E002C080E090E0DF91B5
:10151000CF910895AA1BBB1B51E107C0AA1FBB1F97
:10152000A617B70710F0A61BB70B881F991F5A956F
:10153000A9F780959095BC01CD0108952F923F9217
:101540004F925F926F927F928F929F92AF92BF92D3
:10155000CF92DF92EF92FF920F931F93CF93DF937F
:10156000CDB7DEB7CA1BDB0B0FB6F894DEBF0FBEDC
:10157000CDBF19942A88398848885F846E847D8419
:101580008C849B84AA84B984C884DF80EE80FD802B
:101590000C811B81AA81B981CE0FD11D0FB6F894A1
:0C15A000DEBF0FBECDBFED010895FFCFF0
:1015AC000A0D001B5B303B003B34306D001B5B3283
:1015BC004A001B5B00C0000000000000000000009F
:1015CC0001020203030303040404040404040405D9
:1015DC0005050505050505050505050505050506AE
:1015EC00060606060606060606060606060606068F
:1015FC00060606060606060606060606060606077E
:10160C00070707070707070707070707070707075E
:10161C00070707070707070707070707070707074E
:10162C00070707070707070707070707070707073E
:10163C00070707070707070707070707070707082D
:10164C00080808080808080808080808080808080E
:10165C0008080808080808080808080808080808FE
:10166C0008080808080808080808080808080808EE
:10167C0008080808080808080808080808080808DE
:10168C0008080808080808080808080808080808CE
:10169C0008080808080808080808080808080808BE
:1016AC0008080808080808080808080808080808AE
:1016BC0008080808080808080808080808080800A6
:00000001FF
